:02000000802E50
:02000300216F6B
:0200130021804A
:02000B00219141
:02002300219F1B
:10003000C2B6C293C29275A0FF7580FF758CD87549
:100040008AF0758921758DFD75985075A89775B8DA
:1000500015C28DD28CD28E7E00751905AD19751121
:100060003C7400752064C293C29011CB3120120001
:10007000AB1200B6BE63F77E00B2B6DDF1AD1980FB
:10008000E9752341D523FD227521FF7522FFD52275
:10009000FDD521F722AF20758AA0758C15D28C3042
:1000A0008DFDC28CC28DDFEF7F0022ED75F00A84DA
:1000B00085F013F51222D2B4851280120081C2B4E9
:1000C000D2B5851380120081C2B52211F1119511AC
:1000D000E2119511F1C2B7D2A9758CD8758AF0D208
:1000E0008C227F64D2B73100C2B73100DFF67F00C7
:1000F000227F64D2B73110C2B73110DFF67F002201
:10010000758A30758CF8D28C308DFDC28CC28D22F0
:10011000758A24758CFAD28C308DFDC28CC28D22EA
:10012000D2901181C29011813091FDE5A075F064EB
:1001300084F514E5F075F00A84F51585F01675F070
:1001400002E516A475F00A8485F016F51775F0021D
:10015000E515A48517F025F075F00A8485F015F5EE
:100160001775F002E514A48517F025F0F514221197
:0A0170008811880519AD19BD3D0581
:10017A007D0175190132118811881519AD19BD0053
:10018A00057D3C75193C32C28C758CD8758AF00E87
:10019A00B292D28C32E599C298B43116E515243060
:1001AA00F5993099FDC299E5162430F5993099FDF3
:1001BA00C299B4320B75203275994F3099FDC299A4
:1001CA00B4330B75206475994F3099FDC299B434D4
:0D01DA000B75209675994F3099FDC2993232
:00000001FF
